{
  "transactions": [
    {
      "hash": "0x3a0c67139666fbcb6d13a7b966c6912568be4ac690681189fb034dc19afc6111",
      "transactionType": "CALL",
      "contractName": null,
      "contractAddress": "0xc0ffee1234567890abcdef1234567890abcdef34",
      "function": "upgrade(address,address)",
      "arguments": [
        "0x0Feedc0de0000000000000000000000000000000",
        "0x0C0DEbA5E0000000000000000000000000000000"
      ],
      "transaction": {
        "from": "0xc0ce63ca7605cb29aa6bcd040715d2a383a9f4ac",
        "to": "0xc0ffee1234567890abcdef1234567890abcdef34",
        "gas": "0xdd36",
        "value": "0x0",
        "input": "0x99a88ec40000000000000000000000000feedc0de00000000000000000000000000000000000000000000000000000000c0deba5e0000000000000000000000000000000",
        "nonce": "0x1f",
        "chainId": "0x1304314"
      },
      "additionalContracts": [],
      "isFixedGasLimit": false
    }
  ],
  "receipts": [
    {
      "status": "0x1",
      "cumulativeGasUsed": "0x9742",
      "logs": [
        {
          "address": "0x0feedc0de0000000000000000000000000000000",
          "topics": [
            "0xbc7cd75a20ee27fd9adebab32041f755214dbc6bffa90cc0225b39da2e5c2d3b",
            "0x0000000000000000000000000c0deba5e0000000000000000000000000000000"
          ],
          "data": "0x",
          "blockHash": "0x608f960285151076a45556b2c16064e6660922d1034b03c59edb6fa0216567a6",
          "blockNumber": "0x1c",
          "transactionHash": "0x3a0c67139666fbcb6d13a7b966c6912568be4ac690681189fb034dc19afc6111",
          "transactionIndex": "0x0",
          "logIndex": "0x0",
          "removed": false
        }
      ],
      "logsBloom": "0x00000000000000080000000000000000400000000000000000000000000000000000000000000000000000000000000000000000000000000000000000000000000000000000000000000000000002000000000000000000000000008000000000000000000000000000000000000000000000000000000000000000000000000000000000000000000000400000040000000000000000000000000000000000000000000000000000000000000000000000000000000000000000000000000000000020000000000000000000000000000800000000000000000000000000000000000000000000000000000000000000000000100000000000000000000000",
      "type": "0x2",
      "transactionHash": "0x3a0c67139666fbcb6d13a7b966c6912568be4ac690681189fb034dc19afc6111",
      "transactionIndex": "0x0",
      "blockHash": "0x608f960285151076a45556b2c16064e6660922d1034b03c59edb6fa0216567a6",
      "blockNumber": "0x1c",
      "gasUsed": "0x9742",
      "effectiveGasPrice": "0x5d21dba01",
      "from": "0xc0ce63ca7605cb29aa6bcd040715d2a383a9f4ac",
      "to": "0xc0ffee1234567890abcdef1234567890abcdef34",
      "contractAddress": null
    }
  ],
  "libraries": [],
  "pending": [],
  "returns": {},
  "timestamp": 1739332690,
  "chain": 19940116,
  "commit": "bfdabe54"
}